000001IB7813461190609
01IB781346119060900979748  1994TE582TA - BERNARDO (SEALY       TX51864   14150339030200 S114680293933703000000000000000000000F  0 000000000UNIT 9401   1994                15089225880060   D72  U16960630411994             * 0000000 0000000 0000000000000                                                150823N000000TA001     34617     N0000000YNN000000000000000000000000000000S00000000Y
01IB781346119060910908482  9601TE058LOVES #542     FT STOCKTON TX88808   18170549770200 S177330308954777000000000000000000000F  0 000000000UNIT 9601   9601                28396921110455   D72  U16892825339601             * 0000000 0000000 0000000000000                                                283162N000000MU001     34617     N0000000YNN000000000000000000000000000000 00000000Y
01IB781346119060900940033  9603TX024LOVES #234     KATY        TX02114   08510588060200 S200090292958606000000000000000000000F  0 000000000UNIT 9603   9603                07609305910599   D91  U16892825589603             * 0000000 0000000 0000000000000                                                074894N000000MU001     34617     N0000000YNN000000000000000000000000000000 00000000Y
90IB781346119060900147686000600004921002989014708600000000000000000000000000000000000000000000000000000000000000000000000000U   91000000000000000000000000000000000000000000000000000000000000000000000000000000000000000000000000000000000000000000000000000   92000000000000000000000000000000000000000000000000000000000000000000000000000000000000000000000000000000000000000000000000000000
