000001IB7813461190603
01IB781346119060360352969  1994TX024LOVES #234     KATY        TX24041   18040400280200 S135980292939828000000000000000000000F  0 000000000UNIT 9401   1994                50678705440513   D91  U16960630411994             * 0000000 0000000 0000000000000                                                506089N000000MU001     34617     N0000000YNN000000000000000000000000000000 00000000Y
01IB781346119060360358289  9601TE582TA - BERNARDO (SEALY       TX47384   18310560470200 S190020293955847000000000000000000000F  0 000000000UNIT 9601   9601                12815564416129   D72  U16892825339601             * 0000000 0000000 0000000000000                                                280419N000000TA001     34617     N0000000YNN000000000000000000000000000000S00000000Y
01IB781346119060360302341  9603TE397AMIGOS COUNTRY FLATONIA    TX0001747414500483700200 S180480266948170000000000000000000000F  0 000000000UNIT 9603   9603                07393105910550   D72  U16892825589603             * 0000000 0000000 0000000000000                                                072938N000000          34617     N0000000YNN000000000000000000000000000000F00000000Y
90IB781346119060300144445000600005064802840014384500000000000000000000000000000000000000000000000000000000000000000000000000U   91000000000000000000000000000000000000000000000000000000000000000000000000000000000000000000000000000000000000000000000000000   92000000000000000000000000000000000000000000000000000000000000000000000000000000000000000000000000000000000000000000000000000000
