000001IB7813461190611
01IB781346119061141196372   501TE182PILOT #472     BEASLEY     TX6001223 10040401900200 S143900285941141000000000000000000000F  0 000000000UNIT 0501   0501                21253505730391   D91  U1694591761501              * 0000000 0000000 0000000011510                                                211972N000000PI001     34617     N0000000YNN000000000000000000000000000000F00000000Y
01IB781346119061121115909  8901XT168TEXAS TRAVEL PLHUMBLE      TX0001462006140450260200 S153570295945440000000000000000000000F  0 000000000UNIT 8901   8901                61807605210532   D72  U16892825668901             * 0000000 0000000 0000000006140                                                617259N000000          34617     N0000000YNN000000000000000000000000000000F00000000Y
01IB781346119061151146080  9603XT453LOVES #464     COMFORT     TX57453   13000480620200 S165670288947862000000000000000000000F  0 000000000UNIT 9603   9603                07708005910595   D72  U16892825589603             * 0000000 0000000 0000000000000                                                076093N000000MU001     34617     N0000000YNN000000000000000000000000000000 00000000Y
90IB781346119061100133278000600004631402903013444300000000000000000000000000000000000000000000000000000000000000000000000000U   91000000000000000000000000000000000000000000000000000000000000000000000000000000000000000000000000000000000000000000000000000   92000000000000000000000000000000000000000000000000000000000000000000000000000000000000017650000000000000000000000000000000000000
