000001IB7813461181214
01IB781346118121441472283  8901XT370LOVES #264     LULING      TX19090   07080493650150 S165760296949215000000000000000000000F  0 000000000UNIT 8901   8901                59589405021064   D91  U16892825668901             * 0000000 0000000 0000000000000                                                594130N000000MU001     34617     N0000000YNN000000000000000000000000000000 00000000Y
01IB781346118121431422727  9601XT168TEXAS TRAVEL PLHUMBLE      TX0001152804120348600150 S125810279935213000000000000000000000F  0 000000000UNIT 9601   0                   24898531288718   D72  U16892825339601             * 0000000 0000000 0000000005030                                                124787N000000          34617     N0000000YNN000000000000000000000000000000F00000000Y
01IB781346118121401423757  9604TX024LOVES #234     KATY        TX71860   02340473950150 S154950304947245000000000000000000000F  0 000000000UNIT 9604   9604                25893305120514   D91  U16945917799604             * 0000000 0000000 0000000000000                                                258136N000000MU001     34617     N0000000YNN000000000000000000000000000000 00000000Y
90IB781346118121400131620000450004465202949013167300000000000000000000000000000000000000000000000000000000000000000000000000U   91000000000000000000000000000000000000000000000000000000000000000000000000000000000000000000000000000000000000000000000000000   92000000000000000000000000000000000000000000000000000000000000000000000000000000000000005030000000000000000000000000000000000000
