000001IB7813461190529
01IB781346119052962917733  1994TE587LOVES #700     SONORA      TX35613   15590393120300 S127660302938667000000000000000000000F  0 000000000UNIT 9401   1994                50608905440463   D72  U16960630411994             *P0000345 0000000 0000000000000 F                                              505497N000000MU001     34617     N0000000YNN000000000000000000000000000000 00000000Y
01IB781346119052962991091  9602XT453LOVES #464     COMFORT     TX00275   22520354010200 S120180292935201000000000000000000000F  0 000000000UNT 9602    9602                17072205834718   D72  U16979351309602             * 0000000 0000000 0000000000000                                                116979N000000MU001     34617     N0000000YNN000000000000000000000000000000 00000000Y
01IB781346119052962955351  9603XT453LOVES #464     COMFORT     TX99457   18360415980200 S141340292941398000000000000000000000F  0 000000000UNIT 9603   9603                07293805930577   D72  U16892825589603             * 0000000 0000000 0000000000000                                                072122N000000MU001     34617     N0000000YNN000000000000000000000000000000 00000000Y
90IB781346119052900116311000700003891802962011526600000000000000000000000000000000000000000000000000000000000000000000000000U   91000000000000000000000000000000000000000000000000000000000000000000000000000000000000000000000000000000000000000000000000000   92000000000000000000000000000000000000000000000000000000000000000000000000000000000000000000000000000000000000000000000000000000
