000001IB7813461190605
01IB781346119060570516743   501TE336OLD HUMBLE CHEVHUMBLE      TX0001899114480350000000 S132130264935000000000000000000000000F  0 000000000UNIT 0501   0501                21138105850758   D72  U1694591761501              * 0000000 0000000 0000000000003                                                210379N000000RN001     34617     N0000000YNN000000000000000000000000000000F00000000Y
01IB781346119060560555993  9601TE587LOVES #700     SONORA      TX58681   11090511550200 S170470298950955000000000000000000000F  0 000000000UNIT 9601   9601                28249821940539   D72  U16892825339601             * 0000000 0000000 0000000000000                                                128155N000000MU001     34617     N0000000YNN000000000000000000000000000000 00000000Y
01IB781346119060540533830  9603XT453LOVES #464     COMFORT     TX28022   06020503160200 S171100292950116000000000000000000000F  0 000000000UNIT 9603   9603                07489405900562   D72  U16892825589603             * 0000000 0000000 0000000000000                                                073931N000000MU001     34617     N0000000YNN000000000000000000000000000000 00000000Y
90IB781346119060500136471000400004737002873013607100000000000000000000000000000000000000000000000000000000000000000000000000U   91000000000000000000000000000000000000000000000000000000000000000000000000000000000000000000000000000000000000000000000000000   92000000000000000000000000000000000000000000000000000000000000000000000000000000000000000000000000000000000000000000000000000000
