000001IB7813461190515
01IB781346119051571535452   501TX876HANDI STOP #39 HOUSTON     TX0001753915320600000000 S209860285960000000000000000000000000F  0 000000000UNIT 0501   0501                20930305791173   D72  U1694591761501              * 0000000 0000000 0000000000003                                                080925N000000          34617     N0000000YNN000000000000000000000000000000F00000000Y
01IB781346119051571523670  1994TE336OLD HUMBLE CHEVHUMBLE      TX0001840514580420070000 S155640269942007000000000000000000000F  0 000000000UNIT 9401   1994                50283705620904   D72  U16960630411994             * 0000000 0000000 0000000000003                                                501429N000000RN001     34617     N0000000YNN000000000000000000000000000000F00000000Y
01IB781346119051571574825  9603XT216LOVES #463     SEGUIN      TX33496   18140257140200 S087110292925514000000000000000000000F  0 000000000UNIT 9603   9603                06766806040378   D91  U16892825589603             * 0000000 0000000 0000000000000                                                067338N000000MU001     34617     N0000000YNN000000000000000000000000000000 00000000Y
90IB781346119051500127721000200004526102817012752100000000000000000000000000000000000000000000000000000000000000000000000000U   91000000000000000000000000000000000000000000000000000000000000000000000000000000000000000000000000000000000000000000000000000   92000000000000000000000000000000000000000000000000000000000000000000000000000000000000000000000000000000000000000000000000000000
