000001IB7813461190607
01IB781346119060760751868   501TE336OLD HUMBLE CHEVHUMBLE      TX0001905711250250000000 S096190259925000000000000000000000000F  0 000000000UNIT 0501   0501                21197205860614   D72  U1694591761501              * 0000000 0000000 0000000000003                                                211381N000000RN001     34617     N0000000YNN000000000000000000000000000000F00000000Y
01IB781346119060760782335  1994XT279PILOT #330     NEW BRAUNFELTX50887   13150429990200 S152900287944022000000000000000000000F  0 000000000UNIT 9401   1994                15082328640054   D91  U16960630411994             * 0000000 0000000 0000000012230                                                150740N000000PI001     34617     N0000000YNN000000000000000000000000000000F00000000Y
01IB781346119060770746320  9601TE397AMIGOS COUNTRY FLATONIA    TX0001817717160352150200 S133700261935015000000000000000000000F  0 000000000UNIT 9601   9601                28316221570496   D72  U16892825339601             * 0000000 0000000 0000000000000                                                282498N000000          34617     N0000000YNN000000000000000000000000000000F00000000Y
90IB781346119060700103214000400003827902718010403700000000000000000000000000000000000000000000000000000000000000000000000000U   91000000000000000000000000000000000000000000000000000000000000000000000000000000000000000000000000000000000000000000000000000   92000000000000000000000000000000000000000000000000000000000000000000000000000000000000012230000000000000000000000000000000000000
