000001IB7813461190521
01IB781346119052162149170  1994LA552LOVES #523     RAYNE       LA46851   19290468220200 S157030296946622000000000000000000000F  0 000000000UNIT 9401   1994                50311505480177   D72  U16960630411994             * 0000000 0000000 0000000000000                                                502837N000000MU001     34617     N0000000YNN000000000000000000000000000000 00000000Y
01IB781346119052162131188  9601MS152LOVES #595     GULFPORT    MS67679   17530474960200 S158770297947296000000000000000000000F  0 000000000UNIT 9601   9601                27895623940393   D72  U16892825339601             * 0000000 0000000 0000000000000                                                278332N000000MU001     34617     N0000000YNN000000000000000000000000000000 00000000Y
01IB781346119052162108178  9603XT453LOVES #464     COMFORT     TX60430   16230420880200 S142040294941888000000000000000000000F  0 000000000UNIT 9603   9603                06967505970582   D72  U16892825589603             * 0000000 0000000 0000000000000                                                068848N000000MU001     34617     N0000000YNN000000000000000000000000000000 00000000Y
90IB781346119052100136406000600004578402966013580600000000000000000000000000000000000000000000000000000000000000000000000000U   91000000000000000000000000000000000000000000000000000000000000000000000000000000000000000000000000000000000000000000000000000   92000000000000000000000000000000000000000000000000000000000000000000000000000000000000000000000000000000000000000000000000000000
