000001IB7813461190619
01IB781346119061971936267   501TE255FLYING J #1025 CHANNELVIEW TX6040778 16240556310200 S189890299956950000000000000000000000F  0 000000000UNIT 0501   67015               21368305760604   D91  U1694591761501              * 0000000 0000000 0000000015190                                                212535N000000PI001     34617     N0000000YNN000000000000000000000000000000F00000000Y
01IB781346119061971973312  9601XT507LOVES #293     CLEVELAND   TX07554   19150534050200 S184160288953205000000000000000000000F  0 000000000UNIT 9601   67012               12962243698591   D91  U16892825339601             * 0000000 0000000 0000000000000                                                285080N000000MU001     34617     N0000000YNN000000000000000000000000000000 00000000Y
01IB781346119061971955182  9603CO011LOVES #668     BERTHOUD    CO13784   17410477450200 S159070298947545000000000000000000000F  0 000000000UNIT 9603   9603                08004405940637   D72  U16892825589603             * 0000000 0000000 0000000000000                                                079030N000000MU001     34617     N0000000YNN000000000000000000000000000000 00000000Y
90IB781346119061900156781000600005331202958015770000000000000000000000000000000000000000000000000000000000000000000000000000U   91000000000000000000000000000000000000000000000000000000000000000000000000000000000000000000000000000000000000000000000000000   92000000000000000000000000000000000000000000000000000000000000000000000000000000000000015190000000000000000000000000000000000000
