000001IB7813461190523
01IB781346119052362368061   501TE336OLD HUMBLE CHEVHUMBLE      TX0001864213050573660000 S207920275957366000000000000000000000F  0 000000000UNIT 0501   0501                21037905720517   D72  U1694591761501              * 0000000 0000000 0000000000003                                                209303N000000RN001     34617     N0000000YNN000000000000000000000000000000F00000000Y
01IB781346119052342378903  1994TE393STUCKEY'S WEST HANKAMER    TX0095614 08300399150000 S145200274939915000000000000000000000F  0 000000000UNIT 9401   1994                50393705480566   D72  U16960630411994             * 0000000 0000000 0000000000003                                                503115N000000          34617     R0000000YNN000000000000000000000000000000F00000000Y
01IB781346119052372300658  9603XT453LOVES #464     COMFORT     TX68936   14570447750200 S151150294944575000000000000000000000F  0 000000000UNIT 9603   9603                07045705940517   D72  U16892825589603             * 0000000 0000000 0000000000000                                                069675N000000MU001     34617     N0000000YNN000000000000000000000000000000 00000000Y
90IB781346119052300142056000200005042702813014185600000000000000000000000000000000000000000000000000000000000000000000000000U   91000000000000000000000000000000000000000000000000000000000000000000000000000000000000000000000000000000000000000000000000000   92000000000000000000000000000000000000000000000000000000000000000000000000000000000000000000000000000000000000000000000000000000
