000001IB7813461190620
01IB781346119062032033788  1994TE3647-ELEVEN #41037CORRIGAN    TX0174000 06040366260000 S129010283936626000000000000000000000F  0 000000000UNIT 9401   67014               50922505110603   A27  U16960630411994             * 0000000 0000000 0000000000003                                                508446N000000SE011     34617     N0000000YNN000000000000000000000000000000F00000000Y
01IB781346119062032039481  9301TE549LOVES #709     LUFKIN      TX76055   06320352500200 S121320288935050000000000000000000000F  0 000000000UNIT 9301   9301                02922255272274   D91  U16892825259301             * 0000000 0000000 0000000000000                                                002198N000000MU001     34617     N0000000YNN000000000000000000000000000000 00000000Y
01IB781346119062032037367  9602TE549LOVES #709     LUFKIN      TX76030   06220458670200 S158070288945667000000000000000000000F  0 000000000UNT 9602    9602                17423005790559   D91  U16979351309602             * 0000000 0000000 0000000000000                                                173345N000000MU001     34617     N0000000YNN000000000000000000000000000000 00000000Y
90IB781346119062000117743000400004084002873011734300000000000000000000000000000000000000000000000000000000000000000000000000U   91000000000000000000000000000000000000000000000000000000000000000000000000000000000000000000000000000000000000000000000000000   92000000000000000000000000000000000000000000000000000000000000000000000000000000000000000000000000000000000000000000000000000000
