000001IB7813461190528
01IB781346119052832811259  1994XT453LOVES #464     COMFORT     TX93549   15200444130200 S150950292944213000000000000000000000F  0 000000000UNIT 9401   1994                50549705475229   D72  U16960630411994             * 0000000 0000000 0000000000000                                                150418N000000MU001     34617     N0000000YNN000000000000000000000000000000 00000000Y
01IB781346119052812863374  8901XT168TEXAS TRAVEL PLHUMBLE      TX0001823906590481970200 S164430295948655000000000000000000000F  0 000000000UNIT 8901   8901                61640405190560   D72  U16892825668901             * 0000000 0000000 0000000006580                                                615483N000000          34617     N0000000YNN000000000000000000000000000000F00000000Y
01IB781346119052832811559  9602TX705LOVES #484     WEIMAR      TX97027   15210553970200 S188450292955197000000000000000000000F  0 000000000UNT 9602    9602                11697978023161   D91  U16979351309602             * 0000000 0000000 0000000000000                                                168772N000000MU001     34617     N0000000YNN000000000000000000000000000000 00000000Y
01IB781346119052822891963  9603XT216LOVES #463     SEGUIN      TX72589   14160472150200 S160520292947015000000000000000000000F  0 000000000UNIT 9603   9603                07212205930603   D91  U16892825589603             * 0000000 0000000 0000000000000                                                071153N000000MU001     34617     N0000000YNN000000000000000000000000000000 00000000Y
90IB781346119052800195222000800006643502936019508000000000000000000000000000000000000000000000000000000000000000000000000000U   91000000000000000000000000000000000000000000000000000000000000000000000000000000000000000000000000000000000000000000000000000   92000000000000000000000000000000000000000000000000000000000000000000000000000000000000006580000000000000000000000000000000000000
