000001IB7813461181130
01IB781346118113033072145  9601TE277PILOT #1059    SCHULENBURG TX52568   06440479290350 S153480303946644000000000000000000000F  0 000000000UNIT 9601   9601                12478702951919   D91  U16892825339601             *W0001785P0000378 0000000012280 FF                                             247005N000000PI001     34617     N0000000YNN000000000000000000000000000000F00000000Y
01IB781346118113073033219  9602TX941FLYING J #488  COTULLA     TX55435   14440475130150 S162250299948661000000000000000000000F  0 000000000UNIT 9602   9602                13314206322332   D72  U16892825419602             * 0000000 0000000 0000000012980                                                113132N000000PI001     34617     N0000000YNN000000000000000000000000000000F00000000Y
01IB781346118113003015893  9604TX024LOVES #234     KATY        TX23898   01260401030150 S129340308939953000000000000000000000F  0 000000000UNIT 9604   9604                25572405210542   D91  U16945917799604             * 0000000 0000000 0000000000000                                                255022N000000MU001     34617     N0000000YNN000000000000000000000000000000 00000000Y
90IB781346118113000135545000650004450703039013525800000000000000000000000000000000000000000000000000000000000000000000000000U   91000000000000000000000000000000000000000000000000000000000000000000000000000000000000000000000000000000000000000000000000000   92000000000000000000000000000000000000000000000000000000000000000000000000000000000000025260000000000000000000000000000000000000
