000001IB7813461190508
01IB781346119050850866880  1994XT168TEXAS TRAVEL PLHUMBLE      TX0001988907540379720200 S129400295938290000000000000000000000F  0 000000000UNIT 9401   1994                50087205460543   D72  U16960630411994             * 0000000 0000000 0000000005180                                                500169N000000          34617     N0000000YNN000000000000000000000000000000F00000000Y
01IB781346119050860895422  8901TX275LOVES #297     EDNA        TX60150   12590446150200 S151070294044415000000000000000000000F  0 000000000UNIT 8901   8901                61365205130626   D91  U16892825668901             * 0000000 0000000 0000000000000                                                612706N000000MU001     34617     N0000000YNN000000000000000000000000000000 00000000Y
01IB781346119050830840663  9601TX275LOVES #297     EDNA        TX59539   06180424210200 S143610294042221000000000000000000000F  0 000000000UNIT 9601   9607                27563026270491   D91  U16892825339601             * 0000000 0000000 0000000000000                                                274924N000000MU001     34617     N0000000YNN000000000000000000000000000000 00000000Y
90IB781346119050800125008000600004240802946012492600000000000000000000000000000000000000000000000000000000000000000000000000U   91000000000000000000000000000000000000000000000000000000000000000000000000000000000000000000000000000000000000000000000000000   92000000000000000000000000000000000000000000000000000000000000000000000000000000000000005180000000000000000000000000000000000000
