000001IB7813461181218
01IB781346118121821826375  9601XT453LOVES #464     COMFORT     TX88866   06170430520150 S145480294942902000000000000000000000F  0 000000000UNIT 9601   9601                47699980746732   D72  U16892825339601             * 0000000 0000000 0000000000000                                                248985N000000MU001     34617     N0000000YNN000000000000000000000000000000 00000000Y
01IB781346118121861840399  9601XT453LOVES #464     COMFORT     TX91868   18000162480150 S054960292916098000000000000000000000F  0 000000000UNIT 9601   9601                47764779911179   D72  U16892825339601             * 0000000 0000000 0000000000000                                                476999N000000MU001     34617     N0000000YNN000000000000000000000000000000 00000000Y
01IB781346118121821845813  9602TX187LOVES #492     PECOS       TX11689   07430492210150 S144800338949071000000000000000000000F  0 000000000UNIT 9602   9602                13679406731743   D72  U16892825419602             * 0000000 0000000 0000000000000                                                134269N000000MU001     34617     N0000000YNN000000000000000000000000000000 00000000Y
01IB781346118121801816762  9604TX024LOVES #234     KATY        TX85373   01390363930150 S121250298936243000000000000000000000F  0 000000000UNIT 9604   9604                25957705130531   D91  U16945917799604             * 0000000 0000000 0000000000000                                                258933N000000MU001     34617     N0000000YNN000000000000000000000000000000 00000000Y
90IB781346118121800144914000600004664903094014431400000000000000000000000000000000000000000000000000000000000000000000000000U   91000000000000000000000000000000000000000000000000000000000000000000000000000000000000000000000000000000000000000000000000000   92000000000000000000000000000000000000000000000000000000000000000000000000000000000000000000000000000000000000000000000000000000
