000001IB7813461181113
01IB781346118111351304991  9401TE255FLYING J #1025 CHANNELVIEW TX46768   12560453200150 S146700315946344000000000000000000000F  0 000000000UNIT 9401   9401                14714715451127   D91  U16945070809401             * 0000000 0000000 0000000011740                                                470673N000000PI001     34617     N0000000YNN000000000000000000000000000000F00000000Y
01IB781346118111341393275  9602TE549LOVES #709     LUFKIN      TX75037   12200507530150 S163290309950603000000000000000000000F  0 000000000UNIT 9602   9602                11316401051997   D91  U16892825419602             * 0000000 0000000 0000000000000                                                130162N000000MU001     34617     N0000000YNN000000000000000000000000000000 00000000Y
01IB781346118111351348915  9604XT074PILOT #1001    BIG LAKE    TX35607   15180587550150 S161930369959900000000000000000000000F  0 000000000UNIT 9604   9604                12525810539476   D72  U16945917799604             * 0000000 0000000 0000000012950                                                251683N000000PI001     34617     N0000000YNN000000000000000000000000000000F00000000Y
90IB781346118111300154828000450004719203324015684700000000000000000000000000000000000000000000000000000000000000000000000000U   91000000000000000000000000000000000000000000000000000000000000000000000000000000000000000000000000000000000000000000000000000   92000000000000000000000000000000000000000000000000000000000000000000000000000000000000024690000000000000000000000000000000000000
