000001IB7813461181127
01IB781346118112722748423  9601TX705LOVES #484     WEIMAR      TX05332   06000083720150 S026970304908222000000000000000000000F  0 000000000UNIT 9601   9601                24700534203859   D91  U16892825339601             * 0000000 0000000 0000000000000                                                245964N000000MU001     34617     N0000000YNN000000000000000000000000000000 00000000Y
01IB781346118112722750404  9601TX705LOVES #484     WEIMAR      TX05342   06110465700150 S152250304946420000000000000000000000F  0 000000000UNIT 9601   9601                24700532936814   D91  U16892825339601             * 0000000 0000000 0000000000000                                                247005N000000MU001     34617     N0000000YNN000000000000000000000000000000 00000000Y
01IB781346118112702716747  9604TX024LOVES #234     KATY        TX12539   01450538960150 S170680314953746000000000000000000000F  0 000000000UNIT 9604   9604                25502205185939   D91  U16945917799604             * 0000000 0000000 0000000000000                                                125409N000000MU001     34617     N0000000YNN000000000000000000000000000000 00000000Y
90IB781346118112700108838000450003499003098010838800000000000000000000000000000000000000000000000000000000000000000000000000U   91000000000000000000000000000000000000000000000000000000000000000000000000000000000000000000000000000000000000000000000000000   92000000000000000000000000000000000000000000000000000000000000000000000000000000000000000000000000000000000000000000000000000000
