000001IB7813461190613
01IB781346119061331353987  1994TE3647-ELEVEN #41037CORRIGAN    TX0173956 06280280310000 S098730283928031000000000000000000000F  0 000000000UNIT 9401   1994                50844605091677   A27  U16960630411994             * 0000000 0000000 0000000000003                                                509617N000000SE011     34617     N0000000YNN000000000000000000000000000000F00000000Y
01IB781346119061361385454  8901XT507LOVES #293     CLEVELAND   TX89199   13060432800200 S149120288943080000000000000000000000F  0 000000000UNIT 8901   8901                61894905230585   D91  U16892825668901             * 0000000 0000000 0000000000000                                                618076N000000MU001     34617     N0000000YNN000000000000000000000000000000 00000000Y
01IB781346119061361391788  9601TE549LOVES #709     LUFKIN      TX59824   13290592000200 S204220288959000000000000000000000000F  0 000000000UNIT 9601   9601                28508020620544   D91  U16892825339601             * 0000000 0000000 0000000000000                                                283969N000000MU001     34617     N0000000YNN000000000000000000000000000000 00000000Y
01IB781346119061361384613  9602XT507LOVES #293     CLEVELAND   TX89187   13030545700200 S188200288954370000000000000000000000F  0 000000000UNT 9602    9602                17334505790614   D91  U16979351309602             * 0000000 0000000 0000000000000                                                172189N000000MU001     34617     N0000000YNN000000000000000000000000000000 00000000Y
90IB781346119061300185081000600006402702881018448100000000000000000000000000000000000000000000000000000000000000000000000000U   91000000000000000000000000000000000000000000000000000000000000000000000000000000000000000000000000000000000000000000000000000   92000000000000000000000000000000000000000000000000000000000000000000000000000000000000000000000000000000000000000000000000000000
