000001IB7813461190820
01IB781346119082052038985  1994LA552LOVES #523     RAYNE       LA63450   11410422040200 S147430284942004000000000000000000000F  0 000000000UNIT 9401   70585               52537805200498   D72  U16960630411994             * 0000000 0000000 0000000000000                                                524643N000000MU001     34617     N0000000YNN000000000000000000000000000000 00000000Y
01IB781346119082012095060  8901TX610LOVES #233     WALLER      TX65909   04410443700200 S158370278944170000000000000000000000F  0 000000000UNIT 8901   8901                62788305320558   D91  U16892825668901             * 0000000 0000000 0000000000000                                                626998N000000MU001     34617     N0000000YNN000000000000000000000000000000 00000000Y
01IB781346119082022089492  9301TE549LOVES #709     LUFKIN      TX26702   06560498480200 S174270284949648000000000000000000000F  0 000000000UNIT 9301   9301                01128121259339   D91  U16892825259301             * 0000000 0000000 0000000000000                                                263071N000000MU001     34617     N0000000YNN000000000000000000000000000000 00000000Y
90IB781346119082000136422000600004800702829013582200000000000000000000000000000000000000000000000000000000000000000000000000U   91000000000000000000000000000000000000000000000000000000000000000000000000000000000000000000000000000000000000000000000000000   92000000000000000000000000000000000000000000000000000000000000000000000000000000000000000000000000000000000000000000000000000000
