000001IB7813461190524
01IB781346119052472473990  1994TX694PILOT #559     BIG SPRING  TX25755   20240451700200 S147010313946146000000000000000000000F  0 000000000UNIT 9401   1994                15041848849753   F11  U16960630411994             * 0000000 0000000 0000000011760                                                503937N000000PI001     34617     N0000000YNN000000000000000000000000000000F00000000Y
01IB781346119052472408341  9601TE397AMIGOS COUNTRY FLATONIA    TX0001617915020402720200 S149020268940072000000000000000000000F  0 000000000UNIT 9601   9601                80001316049655   D72  U16892825339601             * 0000000 0000000 0000000000000                                                278956N000000          34617     N0000000YNN000000000000000000000000000000F00000000Y
01IB781346119052402417984  9602XT216LOVES #463     SEGUIN      TX58423   01550308580200 S104670292930658000000000000000000000F  0 000000000UNT 9602    9602                16822405900853   D91  U16979351309602             * 0000000 0000000 0000000000000                                                167331N000000MU001     34617     N0000000YNN000000000000000000000000000000 00000000Y
01IB781346119052472465979  9603TX953JUNCTION TRAVELJUNCTION    TX0090361 19250390120000 S130080299939012000000000000000000000F  0 000000000UNIT 9603   9603                07115305930535   D91  U16892825589603             * 0000000 0000000 0000000000003                                                070457N000000LM002     34617     N0000000YNN000000000000000000000000000000F00000000Y
90IB781346119052400155312000600005307802937015588800000000000000000000000000000000000000000000000000000000000000000000000000U   91000000000000000000000000000000000000000000000000000000000000000000000000000000000000000000000000000000000000000000000000000   92000000000000000000000000000000000000000000000000000000000000000000000000000000000000011760000000000000000000000000000000000000
